:107F4000A9EF3FF00F0EC16E8A688C6A9368956A3C
:107F50001200A2EC3FF081500F0B606F8150F00BCC
:107F6000616F613B60516125626F000E625D1CE0D4
:107F7000010E625D1DE0020E625D1EE0030E625D99
:107F80001FE0040E625D20E0050E625D21E0060E3A
:107F9000625D22E0070E625D23E0080E625D24E070
:107FA000090E625D25E028D03F0E836EABEF3FF0F7
:107FB000060E836EABEF3FF05B0E836EABEF3FF0D0
:107FC0004F0E836EABEF3FF0660E836EABEF3FF06C
:107FD0006D0E836EABEF3FF07D0E836EABEF3FF027
:107FE000070E836EABEF3FF07F0E836EABEF3FF07B
:107FF0006F0E836EABEF3FF0370E836EABEF3FF04B
:020000040030CA
:04000000550E1E007B
:020005008080F9
:060008000FC00FE00F40E5
:00000001FF
