:107EEC007FEF3FF00F0EC16E8A688C6A9368956ABB
:107EFC00120078EC3FF081500F0B606F8150F00B4B
:107F0C00616F613B60516125626F000E625D2EE016
:107F1C00010E625D2FE0020E625D30E0030E625DC9
:107F2C0031E0040E625D32E0050E625D33E0060E58
:107F3C00625D34E0070E625D35E0080E625D36E08E
:107F4C00090E625D37E00A0E625D38E00B0E625D71
:107F5C0039E00C0E625D3AE00D0E625D3BE00E0EF8
:107F6C00625D3CE00F0E625D3DE040D03F0E836EE3
:107F7C0081EF3FF0060E836E81EF3FF05B0E836E58
:107F8C0081EF3FF04F0E836E81EF3FF0660E836EF4
:107F9C0081EF3FF06D0E836E81EF3FF07D0E836EAF
:107FAC0081EF3FF0070E836E81EF3FF07F0E836E03
:107FBC0081EF3FF06F0E836E81EF3FF0770E836E93
:107FCC0081EF3FF07C0E836E81EF3FF0390E836EB4
:107FDC0081EF3FF05E0E836E81EF3FF0790E836E82
:107FEC0081EF3FF0710E836E81EF3FF0370E836EA1
:047FFC0081EF3FF0E2
:020000040030CA
:04000000550E1E007B
:020005008080F9
:060008000FC00FE00F40E5
:00000001FF
